:020000040800F2
:10000000A0040020D50000085F0D00085D0D000869
:1000100000000000000000000000000000000000E0
:100020000000000000000000000000008710000831
:100030000000000000000000610D0008251100080C
:10004000E7000008E7000008E7000008E7000008F4
:10005000E7000008E7000008E7000008E7000008E4
:10006000E7000008E7000008E7000008E7000008D4
:10007000E7000008E7000008E7000008E7000008C4
:10008000E7000008E7000008E7000008E7000008B4
:10009000E7000008E7000008E7000008E7000008A4
:1000A000E7000008E7000008E7000008E700000894
:1000B000E7000008E7000008E7000008E700000884
:1000C0000348854600F02CFC00480047B129000891
:1000D000A00400200448804704480047FEE7FEE7EC
:1000E000FEE7FEE7FEE7FEE751110008C100000849
:1000F00030B50B46014600202022012409E00D46C0
:10010000D5409D4205D31D469540491B2546954047
:1001100040191546521E002DF1DC30BD70B500248B
:100120002546002801DA01244042002901DA012590
:100130004942FFF7DDFFAC4200D04042002C00D026
:10014000494270BDF8B502464A40D40F42004B0008
:1001500052085B089A4202D20246084611464A00FB
:1001600023D0C30D4A00DDB2120EAD1A202D35DAB0
:1001700049020126490AF6058A19002C00D052428C
:1001800020214F1B1146B9402A411018C20D9A4236
:1001900021D0002C17D0012D08DCDA05801AD20FEF
:1001A0008019D207DBB200F0EFFAF8BDDA05801A49
:1001B000012340001B06C01880185A428018CA0F3D
:1001C0001043490007E04908C2071143DA05801AC5
:1001D00080194008801800F0CFFAF8BD61000122B4
:1001E000511A001BF7E70122D2075140AAE701226A
:1001F000D2075040A6E770B502464A40D50F4000EE
:100200004A00ED0740085208002814D0002A12D0F6
:10021000C40DD30D41020120C0055202490A520A01
:10022000E41A091812187D34914201D3641C00E0CD
:100230004900002C01DA002070BD0023914201D357
:10024000891A0343400849000028F7D100290AD041
:10025000914202D10121C90705E0914201D2012159
:1002600001E00121C943E005C018401900F084FAFB
:1002700070BD0000F0B507460846584087B0C00F73
:10028000049048000E46590040084908BC1A8841AD
:1002900005D2384631461E4617460B4602465800E0
:1002A000400810434CD0300D039040055900400DDC
:1002B000490D0590401A0290402872DA1803012176
:1002C000000B09050843019004980092002805D00E
:1002D00001995242002088410092019002984021E9
:1002E0000A1A0199009800F013FA05460C466B466D
:1002F00007CB00F02EFAC0197141039A0E0D0023AE
:10030000D71756401A467A40164344D0049A002A1A
:100310002DD0029A012A039A15DC1205C01A9141C8
:1003200001263605001C7141D20F059ED2070093AD
:10033000019202962A46234600F06CFA07B0F0BDFF
:1003400038463146FAE71605224A0F46B218C01A57
:10035000B74101210905001C4F4100187F4111469A
:1003600018187941E20F10436D19644113E0E20758
:100370006D0815436408C2071443039A0126120549
:10038000C01A91413605001C7141CE074008304328
:100390004908C01851412A46234600F02EFACDE7FD
:1003A000FFE7049801224000C117121A00238B4175
:1003B00004983146C417381AA141EEE730B401243D
:1003C000E407634030BC55E730B40124E4076140E2
:1003D00030BC4FE70000E0FFF0B51FB488B00B99C8
:1003E0000998002448400999C00F4900490809911B
:1003F000C0070B990090490049080B91099908988A
:10040000A64608431CD00B990A98084318D00998AF
:1004100001244000420D4800410D099824050003C5
:10042000000B204309900B980003000B20430B9016
:1004300050181C494018002201901446104605E04F
:10044000002001460DB0F0BD032801DA034600E0AC
:1004500003239C46C11A0AAE0AE05F0008ADED5BBB
:100460004F00F75B7D430027AA187C41491C5B1EA7
:100470006145F2DD410004AB5A522104120C0A43DB
:10048000240C401C0828DFDB01980290009970467C
:1004900001910090059B049A0799069800F0BAF91B
:1004A000D0E700000DFCFFFFF0B50C465C4085B0C6
:1004B000E40FE40703944C000026640859009446B6
:1004C000490802460296224321D062460A431ED0C2
:1004D0006200570D4A000E032303550D0124024606
:1004E0002C492405781B1B0B360B4018234326434D
:1004F000614600901C46501AB44103D30098401C3A
:10050000009002E0921800985B41002803DA002076
:10051000014605B0F0BD00200121090507468646C9
:1005200011E064461D46141BB54106D36546521BB7
:10053000B341744607430C43A646CD07400849081B
:10054000284392185B4105460D43EAD110461843F3
:1005500013D06046194650407140084306D06046AB
:10056000101AB34106D20122002306E00022012323
:10057000DB0702E00122D2435310009874460105C4
:10058000381C6141029C039D0019694100F035F956
:10059000BFE70000FD030000C217C10F504010B5B7
:1005A0004018CA079623002100F0EEF810BD10B5E0
:1005B00000229623114600F0E7F810BD0EB5C217D1
:1005C000C10F5040CA0740180021054B0293019209
:1005D00000910A460B4600F01DF903B000BD000073
:1005E000330400000EB505490291002100910A462E
:1005F0000B46019100F00EF903B000BD330400007A
:100600004A0009030123090B1B051943094B10B5C7
:10061000520D9A4201DA002010BD064B34339A4243
:1006200003DC9A1A00F084F810BD03495118884081
:1006300010BD0000FF030000CDFBFFFFC20FD2077B
:10064000400040080BD0C10D0723DB01C918400250
:100650000905400A1143C2084007114370470020B2
:1006600001467047CB0FDB07490010B54908024629
:100670000A4307D00A0D07240903E401090B121BE2
:10068000002A01DC002010BDC900440F0C43C1004A
:10069000E018D205801800F06FF810BD0122D207D3
:1006A000002800DB101A002900DB511A884270472D
:1006B000F0B51FB40646002082B0054640240191E3
:1006C00000901BE0019922460F46304600F030F8BA
:1006D000049A059B801A994110D310461946224668
:1006E00000F016F8361A8F410197224601200021AA
:1006F000009F00F00DF838184D4100902046641E10
:100700000028DFDC019B00982946324607B0F0BD87
:1007100010B5202A04DB0146203A9140002010BD8C
:10072000914020239C1A0346E3401943904010BD9A
:1007300010B5202A04DB0846203AD040002110BD25
:100740000B46D340D0402024A21A914008431946BA
:1007500010BD10B5202A06DBCB170846203A104101
:10076000C1170B4306E00B461341D0402024A21AC8
:1007700091400843194610BD002904DA401C490085
:1007800001D140084000704770B40024050C05D129
:100790001024000402D1002921D01124050E01D11A
:1007A00000020834050F01D10001241D850F01D17D
:1007B0008000A41C002801DB4000641C002908D034
:1007C00020252E1B0D46F540A14000D001212943D4
:1007D000084301061B1B000ADB1D02D5002070BC6C
:1007E0007047DB05181880180029F8DA401C49000A
:1007F000F5D170BC40084000704710B5002B08DAF6
:100800000024401C614192185B411A4301D1400809
:10081000400010BDF0B51FB482B005460C0003D0F7
:10082000084600F09BFE02E000F098FE20300246F1
:10083000009021462846FFF76BFF049B059A04466B
:100840000F4618431143084314D0184610431BD0D9
:10085000009840210A1A18460599FFF769FF0546D6
:100860000E46009A05990498FFF752FF084305D0F9
:10087000012004E02046394607B0F0BD0020C11732
:1008800005430E432C43374300990E986305401AE5
:100890007905E40A00220C43FD0A0A3002D5002043
:1008A0000146E9E70105101969410C9C0D9D0019ED
:1008B0006941FFF7A2FFDFE74A0009030123090BA3
:1008C0001B0519430A4B10B5520D9A4202DA00205B
:1008D000014610BD064B34339A4203DC9A1AFFF7E7
:1008E00027FF10BD034BD218FFF712FF10BD000009
:1008F000FF030000CDFBFFFF10B5002904DB01243E
:10090000E40740428C412146002B04DB1C460123B6
:10091000DB075242A341994200D1904210BD000032
:10092000064C0125064E05E0E36807CC2B430C3C42
:1009300098471034B442F7D3FFF7C6FBC83D000810
:10094000E83D0008416D1022914341657047000069
:1009500070B50D460C4C00280AD00121284600F045
:1009600061FA002000F054FA204600F0A7F870BDAC
:10097000FF200021013000F055FA284600F048FA27
:100980002046FFF7DFFF70BD00080240F0B50F24DE
:1009900007290AD906690D46083DAD002746AF4034
:1009A000BE43AB401E43066107E046698D00274603
:1009B000AF40BE43AB401E434661072A09D2836B5A
:1009C000521E950052199440A34391400B438363F8
:1009D000F0BD0D2A09D2436BD21F950052199440E5
:1009E000A34391400B434363F0BD036B0D3A950065
:1009F00052199440A34391400B430363F0BD0000A0
:100A000010B50649884208D184140121204600F01F
:100A100049FA0021204600F045FA10BD00080240C6
:100A2000002904D0816801221143816070478168E8
:100A30004908490081607047FF220132002903D034
:100A4000816811438160704781689143816070477C
:100A500005221205002903D0816811438160704787
:100A6000816891438160704702460020526D0A42BE
:100A700000D001207047000010B54268FF23013309
:100A80009A430B781B021343436082680A4B1A4057
:100A90004C688B6823434C78640014432343836081
:100AA000026B0F231B059A43097B491EC9B2090536
:100AB0001143016310BD0000FDF7F1FF416D1022ED
:100AC00011434165704748607047000001681C4A47
:100AD000114001600021016041608160C1601949DD
:100AE000184A0839904204D148680F2210434860E0
:100AF0007047144A1432904204D14868F0221043DF
:100B0000486070470F4A2832904205D148680F224A
:100B100012021043486070470A4A3C32904205D1A5
:100B200048680F221203104348607047054A50324C
:100B30009042FAD148680F2212041043486070476F
:100B4000FEFF000008000240002904D001680122D5
:100B50001143016070470168014A1140016070470C
:100B6000FEFF0000024600200968114200D001206B
:100B70007047000030B503680C4A13400C6A8A685D
:100B80004D6922430C692C4322438C692243CC6972
:100B900022434C6A22438C6A22431A430260CA6889
:100BA00042600A6882604968C16030BD0F80FFFF03
:100BB000002B01D0106170470020106170470000C9
:100BC000F0B500228FE0012494402340002B7DD01B
:100BD0004D68022D01D0122D16D115070AD5466A8F
:100BE0005507ED0E0F27AF40BE434F69AF40374367
:100BF000476209E0066A5507ED0E0F27AF40BE4376
:100C00004F69AF40374307624D68012D05D0112D64
:100C100003D0022D01D0122D06D14668A643ED0661
:100C2000ED0F954035434560076855000326AE40FB
:100C3000B446B7430E79B607B60FAE403E430660E2
:100C4000C7686646B7438E68AE403E43C660856857
:100C5000A543CE6896402E438660C56AA5430C69BD
:100C600094402C43C4624C68E4003BD59508214C69
:100C7000AD002F19BD689407240F0F26A640B54379
:100C80001D4EB04201D100260AE01C4EB04201D1F7
:100C9000012605E01A4EB04201D1022600E00526E9
:100CA000A6402E43BE60174D2C689C434E68F60349
:100CB00000D51C432C606C689C434E68B60300D57D
:100CC0001C436C60AC689C434E6800E00AE0F6028E
:100CD00000D51C43AC60EC689C434E68B60200D55E
:100CE0001C43EC60521C0B681C46D44000D06AE7E1
:100CF000F0BD00000000014000080140000C014070
:100D000000100140000401400246002012690A421E
:100D100000D00120704781627047816170470000F8
:100D200070B504460B4D02202946FFF71BFF002833
:100D3000F9D029460220FFF7C6FE00210648831D90
:100D40004A00855A9D52491CC9B20329F8D3600054
:100D5000185A70BD000002400A000020FEE77047EC
:100D600070470000F8B5044602F0DCF800B2FFF767
:100D700013FC2146FFF73BFA0090194C009960697B
:100D8000FFF7E0F906466061E1690098FFF72BFA8A
:100D9000A061FFF753FC134A134BFFF71DFB0446FA
:100DA0000D463046FFF74AFC104A114BFFF714FB83
:100DB00006460F460098FFF741FC32463B46FFF7D8
:100DC00059FA22462B46FFF755FAFFF719FCC0B235
:100DD000642800D96420024A0099D161F8BD00005E
:100DE000540000207B14AE47E17A843F9A99999988
:100DF0009999B93F10B5054BDA6A1C15A2431F2417
:100E0000E402A24302430A43DA6210BD001002402A
:100E1000034AD16A090909010143D1627047000000
:100E20000010024010B5074BDA6AFF24F134A243E8
:100E3000002901D0024302E0FF2001308243DA6240
:100E400010BD00000010024010B50121084600F05E
:100E50001BF80121082000F041F80121080300F0EF
:100E600013F8012000F048F800F0F4F8012800D051
:100E7000FEE70721C9020020FFF7BCFF0821002080
:100E8000FFF766FD10BD0000054A002903D0516937
:100E900001435161704751698143516170470000BE
:100EA00000100240054A002903D0916A0143916273
:100EB0007047916A814391627047000000100240C0
:100EC000054A002903D0D1690143D1617047D16936
:100ED0008143D1617047000000100240054A00299B
:100EE00003D0916901439161704791698143916198
:100EF00070470000001002400649012804D008682D
:100F000040084000086070470868012210430860EC
:100F1000704700000010024070B504463C4E7068F7
:100F20000F210904084071680322120511407568F9
:100F300092001540726801231B061A40000CC01C69
:100F4000120E19D0334A5043090D491CFFF7D0F84F
:100F5000A90D491CFFF7CCF8054670682E490840DA
:100F600001218903421A2B4B88424AD007DC002812
:100F700043D008280AD142E0264A5043E4E7082A31
:100F800041D08A4202D12548206000E02360706889
:100F9000F02108400009082800D2002020490A5CFE
:100FA0002068D0406060726807231B021A40120A52
:100FB0008A5C0346D340A36072680723DB021A40B1
:100FC000D20A895C0246CA40E260F16A0907090F49
:100FD000134A1032515CFFF78BF86061F06AFF2111
:100FE000F1310840000900070D49C00E2031095AAF
:100FF0002846FFF77DF8206170BD2360C7E72360B6
:10100000C5E72560C3E70120C0032060BFE70000FB
:101010000010024000127A0008C000003075000085
:10102000043C0008034600205909094A01290AD056
:1010300002290AD0516ADA06D20E012393400B42EC
:1010400000D0012070471168F5E7116AF3E700004E
:101050000010024018B50020009005242402212031
:10106000FFF7E0FF0099491C00910099A14201D0CF
:101070000028F4D02120FFF7D5FF002801D001205F
:1010800018BD002018BD7047002022490A680123BE
:101090001A430A6005231B020A689207D20F401CFC
:1010A000002A01D19842F7D108688007C00F0028B4
:1010B0002ED019480268920892000260036802224A
:1010C0001343036048684860486803239B059843BE
:1010D00048604868114B18404860486803231B0467
:1010E000184348600868D305184308600868800101
:1010F000FCD54868C008C000486048681043486094
:101100000748012292034B6803409342FBD170478A
:10111000FEE700000010024000200240FFFFC0FE7A
:1011200008C0000010B501F00FF802F0C3FC02F097
:10113000E1FC02F0EFFC01F037F801F05BF801F0A0
:101140003FF801F049F802F0A5FC01F0BBFF10BD2B
:1011500010B5124801680122114301604168104A2C
:101160001140416001680F4A11400160016801228D
:1011700092059143016041680B4A1140416007218B
:10118000C902C162BF2109048160084801681022B8
:1011900011430160FFF778FF10BD0000001002400E
:1011A0000000FF21FFFFF6FEFFFF00FE00200240CF
:1011B0008022002903D00168114301607047016853
:1011C000914301607047028B08239A430A430283CC
:1011D00070470000028B034B1A4009021143018340
:1011E00070470000FFF70000828B08239A430A43F0
:1011F00082837047002904D00168012211430160F5
:101200007047016849084900016070474030002973
:1012100005D081880122D2031143818070478188E3
:101220004904490C8180704730B5026A5208520067
:101230000262036A4268048B7025AC43A408A400D0
:101240000D8825430224A3430C891C434B88234368
:101250000E4CA04202D00E4CA04210D10824A34351
:101260004C891C4304239C438B882343FF24013473
:10127000A2436400A2438C891443CA89224342607A
:101280000583C9888186036230BD0000002C0140BF
:101290000034014070B5026A10239A430262056A65
:1012A0004268038B184C2340184C23400C782406CA
:1012B000240C1C4320239D430B891E012E434B8885
:1012C0001B013343124DA84202D0124DA84214D143
:1012D0008025AB434D892D011D4340239D438B88C1
:1012E0001B012B430125AD02AA436D00AA438D8942
:1012F000AD001543CA8992002A4342600483C9881D
:101300000187036270BD0000FF8F0000FFFC00003A
:10131000002C01400034014030B5026AFF23013344
:101320009A430262036A4268848B7025AC43A40826
:10133000A4000D88254301246402A3430C892402E0
:101340001C434B881B022343114CA04202D0114C7A
:10135000A04216D10124E402A3434C8924021C4379
:1013600001239B029C438B881B02234301242403FB
:10137000A2436400A2438C8924011443CA89120148
:10138000224342608583C9888187036230BD0000A3
:10139000002C014000340140F0B502682F4D304B65
:1013A000304CA84203D0984201D0A04203D170260D
:1013B000B2434E8832432C4EB04204D0032636024C
:1013C000B243CE88324302608A8882850A880285C9
:1013D000A84201D0984201D10A7A02860122828273
:1013E0000268A84203D0984201D0A04207D14F7AA8
:1013F0000126F602002F01D0324300E0B243A042A2
:101400000FD18F7A01263603002F01D0324300E03E
:10141000B243CF7A01267603002F01D0324300E099
:10142000B243A84203D0984201D0A04207D10D7B1D
:101430000123DB03002D01D01A4300E09A43026030
:101440004268A04207D14B7BFF210131002B01D024
:101450000A4300E08A434260F0BD0000002C0140D6
:1014600000340140000400400010004081867047B5
:101470000187704781877047002905D08189012243
:1014800052031143818170478189024A1140818151
:1014900070470000FFDF00000246002012880A4269
:1014A00000D001207047000070B586B004460D469C
:1014B000208A1C490840E98801432182A0891A49F1
:1014C0000840A9882A8911436A8902431143A181EE
:1014D000A08A16490840A9890143A1826846FFF7FE
:1014E0001BFD1348844201D1039800E0029829684B
:1014F000192289005043FEF7FBFD06466421304661
:10150000FEF7F6FD0501280964214843301A000161
:101510003230FEF7EDFD0007000F2843208106B0B2
:1015200070BD0000FFCF0000F3E90000FFFC0000E9
:1015300000380140C905C90D818070470FB410B54E
:1015400003A9044B044A029800F0F6F810BC08BC4A
:1015500004B01847112400089C0000202021020C30
:1015600001D010211046020A01D0104608390209A4
:1015700001D01046091F820801D01046891E42087A
:1015800001D0881E7047081A704730B47446641E34
:101590002578641CAB4200D21D46635D5B00E318F6
:1015A00030BC184702E008C8121F08C1002AFAD14F
:1015B00070477047002001E001C1121F002AFBD1D3
:1015C00070470000F0B51FB486B00998089A030D63
:1015D0000021024314D05148514A181850430514B1
:1015E0001198012810981AD0281A401C00264D4F37
:1015F0004D49009601910490002812DA444211E00E
:101600001198012449A3012801D11098C1430698DB
:10161000119A84600360C26041600BB0F0BD40422B
:10162000E4E70446210500203F4A001C5141039194
:10163000029012E0E00707D032463B46019900983D
:10164000FEF7CAFE0191009032463B46104619460D
:10165000FEF7C2FE06460F466410002CEAD104983D
:10166000039B0028029A0999089806DAFEF7B4FE4F
:10167000019B009AFEF7B0FE05E0FEF715FF019B07
:10168000009AFEF711FF04460E460022284BFFF792
:1016900033F903D80020C043014607E00022254B60
:1016A00020463146FEF7E6FDFFF706F9102409E073
:1016B000002C0ADB0A220023FEF7FAFF079B3032D8
:1016C0001A55641E02460A43F2D11122641C079B7C
:1016D000121B1C19119B012B03D0012308430ED1AF
:1016E0000AE0084304D0112010900020119077E701
:1016F0001098151A6D1E0BE01098824202DD00232F
:101700006D1C03E0824201DA00236D1E002BEED037
:10171000069811998260C16030C07EE701FCFFFF2E
:10172000104D0000000014400000F03F30000000A9
:101730000000F0430000E03FFFB597B006460025EB
:1017400018E2252877D100242746FD49049400E0BB
:101750000443761C32780120203A90400842F7D1A9
:1017600030782A280ED002223078014630390929F3
:1017700016D804990A235943303940181443761C6B
:101780000490F1E7189802C804911890002904DA2F
:101790000120400304434842049002200443761C85
:1017A00030782E2814D1042004437078761C2A281F
:1017B00009D11898761C80C8189009E00A214F4377
:1017C000303FC719761C3078014630390929F5D9E0
:1017D00030786C2810D006DC4C281AD068280ED03F
:1017E0006A2817D104E0742813D07A2812D110E0A7
:1017F0000120400504430CE00121090501E003211B
:1018000009050C437178814203D101200005241899
:10181000761C761C3078119066280BD013DC582883
:101820007DD009DC00287BD04528F6D04628F4D0AE
:1018300047281AD1A5E118E0632835D0642870D074
:10184000652812D19DE170286CD008DC6728F1D0A2
:1018500069287BD06E280DD06F2806D1BAE0732896
:101860002ED0752871D0782859D01A9A1999904796
:101870006D1C7EE16002400F022809D003280DD0C4
:101880000428189801680DD00D60001D189070E1B3
:101890001898EA1701680D604A60F6E71898016821
:1018A0000D80F2E70D70F0E718986A460178117222
:1018B000001D18900020507202A80090012005E041
:1018C000189802C8189000200091C04361070DD5F8
:1018D000002101E00199491C0191B94212DA8142CB
:1018E000F8DB009A515C0029F4D10BE0002101E003
:1018F0000199491C01918142FADB019A0099895CA6
:101900000029F5D1019904981A9B471A21463846B7
:10191000199A00F097FA0199401945180BE04FE029
:101920002CE113E04EE0009800990078491C0091EA
:101930001A9A199990470198401E0190401CF2D1C3
:10194000214638461A9B199A10E137E00A200021F7
:10195000009001916002410F022907D0189A01CA34
:101960001892C2179446032908D00AE01898C01D9F
:10197000C108C90005C91891944607E000B2C21712
:101980009446042902D140B2C1178C460022614618
:10199000944506DA0A460021404291418C462D21A9
:1019A00002E0210504D52B216A461173012103E0D1
:1019B000E10701D02021F7E7029155E00A200AE073
:1019C000102008E010200090002104200443019121
:1019D000082703E008200021019100906002410FD8
:1019E000022907D0189A01CA1892002294460329A6
:1019F00008D008E01898C01DC108C90005C9189191
:101A0000944603E080B2042900D1C0B200210291C3
:101A1000210729D51199702906D0009A1021019B20
:101A20004A401A4305D00EE040216A461173012155
:101A300008E06146014306D030216A4611731199CE
:101A4000517302210291009A0821019B4A401A43D6
:101A50000AD16146014301D1610705D530216A46AB
:101A6000117301217F1E02911199582904D035A1CB
:101A70000E910DA90D910DE037A1F9E76146019B8B
:101A8000009AFEF715FE0E9B8C469B5C0D9A521E2B
:101A90000D92137061460143F0D10D9805A9081A03
:101AA00020300190600703D501200004844300E04A
:101AB00001270198874201DD381A00E000200199D2
:101AC00000904118029809180498401A0490E00305
:101AD00006D421461A9B199A049800F0B3F94519C7
:101AE000002706E003A81A9AC05D199990476D1C5B
:101AF0007F1C02988742F5DBE0030CD521461A9B38
:101B0000199A049800F09EF9451904E01A9A3020B9
:101B1000199990476D1C0099481E00900029F5DC2A
:101B200008E00D980D990078491C0D911A9A1999A1
:101B300090476D1C0199481E01900029F1DC63E17A
:101B40000928010030313233343536373839616293
:101B50006364656600000000303132333435363757
:101B600038394142434445460000000000F05AF92C
:101B70004519761C3078002800D0E2E528461BB0D5
:101B8000F0BD600700D406271898C01DC108C90021
:101B900048680A680831C30FDB071891190001D0A3
:101BA0009CA108E0210501D59BA104E0E10701D03B
:101BB0009AA100E09AA1430011985B081091652852
:101BC0000CD006DC452809D046281DD0472841D135
:101BD00041E0662818D067283CD13CE00021112F55
:101BE00001DB112000E0781C0191009008A911A8E8
:101BF000FFF7E8FC139905910021119A15927F1CBB
:101C000012980197009150E00120C0070390012035
:101C1000019008A9009711A8FFF7D4FC139A149912
:101C200005920022119B009212981593059A019239
:101C3000002901D0104602E0791C40180190381AA2
:101C400001D5019804E04042401E0090781C0190AC
:101C5000C01B029043E0012F00DA01270021112F61
:101C600001DD112000E038460191009008A911A87B
:101C7000FFF7A8FC13990591119A0021129815926B
:101C80000091019721070CD40599B94201DB019914
:101C900000E00191012904DD159A491E515C3029AB
:101CA00006D0B84201DA011D05DA0121029115E0E2
:101CB0000199491EEDE7002805DC009941180091C3
:101CC0000199091A03E0019A411C914200DD01913A
:101CD0000099401A401C02900120C0070390200781
:101CE00006D402990198814202DB0020C043029091
:101CF00000206946C87707AF012103980337C90759
:101D0000884224D0022011902B20129003980028A2
:101D10000CDA404203902D20129007E00A2103982C
:101D2000FEF7E6F930317F1E039039701199481E95
:101D300011900029F2DC03980028EFD1791E129847
:101D400008703078202108404530BF1E387006A842
:101D5000C01BC01D039010980078002800D00120FF
:101D6000019941180298C017091803980918049896
:101D7000401A401E0490E00306D421461A9B199A8B
:101D8000049800F05FF8451910980078002803D0F7
:101D90001A9A199990476D1CE00324D521461A9B85
:101DA000199A049800F04EF845191CE00098002894
:101DB00007DB00990598884203DD1598405C199966
:101DC00001E0199930201A9A904700986D1C401C28
:101DD00000900298401E0290002804D11A9A2E20EA
:101DE000199990476D1C0199481E01900029DDDC6E
:101DF00005E038781A9A7F1C199990476D1C039951
:101E0000481E03900029F4DC21461A9B199A049875
:101E1000ACE600002D0000002B00000020000000B8
:101E200000000000F8B5044600251E461746880449
:101E300004D405E039462020B0476D1C641EF9D556
:101E40002846F8BDFFB50446002581B01E46C803EC
:101E500001D5302700E02027880404D505E0384666
:101E60000399B0476D1C641EF9D5284605B0F0BD36
:101E7000F8B507460E460025002404E03846FEF774
:101E80004FFF4519641CB442F8D331462846FEF78B
:101E90002FF980B2F8BD000010B50120FEF740FF19
:101EA0000149488010BD00000400002030B58BB00F
:101EB000072005900325069505A92148FEF780FE19
:101EC000204C2046FEF79CFD0121684601714171BE
:101ED000072040040290002003906846057401A981
:101EE0002046FEF7C9FD0923012208212046FEF7FE
:101EF0004DFD0923022219462046FEF747FD09231E
:101F000003220A212046FEF741FD01212046FEF76B
:101F100093FD01212046FEF783FD20212046FEF798
:101F2000A3FD0028F9D040212046FEF79DFD0028A2
:101F3000F9D101212046FEF78BFD0BB030BD00002A
:101F4000000C01400008024010B58CB0144C204633
:101F5000FEF7BCFD13480190134802900021039145
:101F60000320049005918020069040000790800097
:101F700008902020099000020A900B9101A92046A8
:101F8000FEF7F8FD06490123224608390020FEF736
:101F90000FFE01212046FEF7D7FD0CB010BD00005A
:101FA00008000240500802400A00002010B5FEF769
:101FB0004BFFFFF7C9FFFFF779FF10BD70B5154C58
:101FC0002068002815D101202060134D0103284608
:101FD000FEF79AFE01280CD102212846FEF79BFE4F
:101FE00080210E48FEF790FE002803D0002001F06B
:101FF000B7FB70BD0A4D6068A84206D2002001F010
:10200000E5FB6068401C606070BD002001F0D2FB01
:10201000656070BD9400002000080140000C014084
:10202000A0BB0D0010B586B001210820FEF756FFB9
:1020300001210420FEF752FF80200090002401942B
:10204000029469460648FEF7BBFD0120000300909C
:102050000194029469460348FEF7B2FD06B010BD34
:10206000000C01400008014003490868002801D025
:10207000401E08607047000094000020014908607D
:10208000704700009400002010B5FFF7CBFF034914
:1020900000204860FFF7F2FF10BD00009400002010
:1020A00010B500F001F810BD10B502210E48FEF782
:1020B0002BFE00280CD000F01DF80C490C4C884277
:1020C00007DC00F017F8A04203DB002001F0A8FBBA
:1020D00010BD00F00FF8A042FADA002001F06AFB10
:1020E000012000F045FF10BD00080140AE4731401F
:1020F000A4701D4010B514210220FFF7B9FEFEF7B1
:1021000071FA054A054BFEF767F9FEF7ABFA044989
:10211000FEF771F810BD000033333333337345409D
:1021200000F61F4700B5014600F008F80246491CBA
:1021300000F004F8801A8842FAD300BD0148C06854
:1021400070470000200000200248C168491CC1609F
:1021500070470000200000200149C860704700005F
:102160002000002010B50C487D21C9000068FDF753
:10217000BFFF0A4988420ED801400948491E416103
:1021800008490723CA691202120A44042243CA6199
:1021900000218161036110BD00000020FFFFFF00EE
:1021A00000E000E004ED00E010B5044C2069401CA4
:1021B0007D210901FDF79CFF216110BD2000002059
:1021C00010B5044CA069401C7D21C900FDF790FFAB
:1021D000A16110BD2000002010B5044CE069401C36
:1021E0000349FDF785FFE16110BD000020000020DC
:1021F0007017000010B5044C6069401CC821FDF741
:1022000077FF616110BD00002000002010B500F0D4
:10221000E7F80449896BFEF741FA01D2012010BDAD
:10222000002010BD5400002001494000085A7047AA
:10223000B03D000810B502211548FEF765FD0028E5
:1022400015D0FFF7E3FF002812D000F067F8002850
:102250000ED0104A906A411E0A2910D2401C90628A
:10226000282000F0E5FB0CA0916AFFF767F910BD8C
:10227000FFF7CCFF0028FAD100F096FD10BD0B2827
:1022800002D00120906210BD00F032FE10BD0000AF
:102290000008014054000020656D735F6C65766531
:1022A0006C3D25640D0A000010B502211548FEF7AB
:1022B0002BFD002815D0FFF7A9FF002812D000F051
:1022C0002DF800280ED0104A906A811E092910D8D6
:1022D000401E9062282000F0ABFB0CA0916AFFF733
:1022E0002DF910BDFFF792FF0028FAD100F05CFD38
:1022F00010BD0121012801D0916210BD00F0F8FD50
:1023000010BD00000008014054000020656D735F9F
:102310006C6576656C3D25640D0A00000148008DF2
:10232000C0B270475400002010B502212248FEF7C9
:10233000EBFC002813D02148817800290FD101211E
:102340008170806A0300FFF720F90C070B0F131749
:102350001B1F23272B2F330A002000F081FB10BD09
:10236000012000F07DFB10BD022000F079FB10BDC4
:10237000032000F075FB10BD042000F071FB10BDC0
:10238000052000F06DFB10BD062000F069FB10BDBC
:10239000072000F065FB10BD082000F061FB10BDB8
:1023A000092000F05DFB10BD0A2000F059FB10BDB4
:1023B0000B2000F055FB10BD000801405400002028
:1023C0000149886270470000540000200349887862
:1023D000002801D0401E8870704700005400002083
:1023E00010B514210020FFF743FDFEF7FBF8054A66
:1023F000054BFDF7F1FF0022044BFEF755F8FEF701
:1024000031F910BD6666666666660A4000FEAF403A
:1024100070B50446064DE1B22846FFF78BF88021DF
:102420002846FFF739F80028F9D0204670BD000093
:102430000038014010B5FFF7FDFE02A0FFF77EF85F
:1024400010BD00006164642073686F72740D0A002F
:1024500010B5FFF729FF02A0FFF770F810BD0000CC
:102460006465632073686F72740D0A0010B506A06E
:10247000FFF764F8074801214170817000F0C8FC43
:1024800000F06AFC10BD000068656174206C6F6E1E
:10249000670D0A001600002010B503A0FFF74EF8E4
:1024A00000F082F810BD00006B65792068656174EA
:1024B0002073686F72740D0A0000000010B503A04D
:1024C000FFF73CF800F0D8F910BD00006B657920EB
:1024D0006C696768742073686F72740D0A0000007D
:1024E00010B509A0FFF72AF800F034FD002807D046
:1024F00000F030FD022802D1032000F0DDFD10BD08
:10250000012000F0D9FD10BD706F776572206C6FEF
:102510006E670D0A0000000010B515A0FFF70EF859
:1025200002211748FEF7F0FB00280BD0FFF7F6FE5C
:10253000002808D0FFF76AFE002803D000F0A6FCB0
:1025400000F0B8FB10BDFFF761FE002808D000F0D6
:102550009DFC0CA0FEF7F2FF012000F0F7FB10BD80
:1025600000F094FC0BA0FEF7E9FF00F039FB10BD72
:10257000706F7765722073686F72740D0A000000C7
:10258000000801407761726D20746F20747265617C
:10259000740D0A007761726D20746F207374616E20
:1025A0006462790D0A00000010B502211648FEF79A
:1025B000ABFB002813D0FFF729FE144C002810D0E5
:1025C000606A401CC117890F091889088900411ADF
:1025D00061620FA0FEF7B2FFA08CC0B210BD002058
:1025E00010BDFFF79BFE002801D0002010BD606ADF
:1025F000401CC117890F091889088900411A6162B6
:1026000003A0FEF79BFFE7E700080140540000200D
:10261000686561745F6C6576656C3D25640D0A00C4
:102620000148808C80B270475400002010B5022110
:102630002048FEF769FB00283AD01F4C607800283C
:1026400036D101206070FFF7EBFFC0B2A072617A53
:1026500081422DD0606A002806D001280AD00228C5
:102660000ED0032822D11CE000F0C6FB002000F0B1
:1026700055FA1BE000F00AFC012000F04FFA15E0CB
:1026800001F0A8FA012805D000F032FC022000F089
:1026900045FA0BE0022000F041FA002001F0A0FA18
:1026A00004E000F0FFFB032000F038FAA07A60722B
:1026B00010BD00000008014054000020014948629C
:1026C000704700005400002003494878002801D0DA
:1026D000401E48707047000054000020034988885D
:1026E000002801D0401E888070470000160000209E
:1026F000F8B50024002500260027002000900121C5
:102700001C48FEF701FB002800D1012440211A4893
:10271000FEF7FAFA002800D1012520211648FEF71D
:10272000F3FA002800D1012610211348FEF7ECFA35
:10273000002800D1012708210F48FEF7E5FA0028FC
:1027400001D101200090002C01D00120F8BD002D06
:1027500001D00220F8BD002E01D00320F8BD002FCB
:1027600001D00420F8BD0098002801D00520F8BD54
:102770000020F8BD00080140000C014030B587B0D2
:1027800001210420FEF7AAFB01210820FEF7A6FB89
:102790000124019400250295039401A90648FEF73F
:1027A0000FFA782001900295039401A90348FEF7DF
:1027B00007FA07B030BD000000080140000C0140DE
:1027C00010B5012109030648FEF79EFA012805D03D
:1027D00000F01AF8002801D000F004F810BD000045
:1027E000000801400021074ACB00D35C834203D19B
:1027F000C800801840680047491CC9B20729F3D3B4
:1028000070470000743D000870B50025194EB0886F
:1028100000282DD10120B080FFF76AFF0446002177
:10282000002C18D03078844213D1F088401C80B23C
:10283000F080FA2802D1202125460D43FA2816D926
:10284000FA21FDF755FC002911D13020254605431A
:102850000DE0F1800BE0F088C21E612A02D83578C5
:10286000102215436538952800D23025F180347048
:10287000284670BD1600002010B502211648FEF74C
:1028800043FA002813D0FFF7C1FC144C002810D0E5
:10289000206A401CC117890F091889088900411A4C
:1028A00021620FA0FEF74AFE208CC0B210BD0020AE
:1028B00010BDFFF733FD002801D0002010BD206AB5
:1028C000401CC117890F091889088900411A216223
:1028D00003A0FEF733FEE7E70008014054000020A4
:1028E0006C696768745F6C6576656C3D25640D0A7C
:1028F000000000000148008C80B2704754000020A6
:1029000010B502212048FEF7FFF9002833D01F4CF4
:10291000207800282FD101202070FFF7EBFFC0B2F4
:102920002072E179814226D0206A002806D0012851
:102930000AD002280ED003281BD111E000F05CFA67
:10294000002000F013F914E000F0A0FA012000F0DC
:102950000DF90EE000F0CCFA022000F007F908E0D3
:1029600001F044F9012807D000F09CFA032000F0A0
:10297000FDF8207AE07110BD032000F0F7F8002088
:1029800001F03AF9F5E7000000080140540000208A
:10299000014908627047000054000020034908788C
:1029A000002801D0401E087070470000540000202D
:1029B00000F01BF800F07AFBFFF738FEFFF7A0FFEE
:1029C000FFF7B2FC00F096F901F02CF801F01EF8C8
:1029D000FFF766FBFFF7F4FEFFF7F0FA00F022FBCB
:1029E00000F0ECFA00F015F8E6E710B5FFF7BAFBD7
:1029F00001F04AF801F0AEF800F0B2FAFFF7D6FAAB
:102A0000FFF7BCFE00F0B2FB00F022F8FFF73CFB42
:102A100010BD10B500F006F8012801D100F036FA1B
:102A200010BD00000148408A70470000540000209B
:102A30000149488270470000540000200349488A39
:102A4000002801D0401E488270470000540000203A
:102A500010B500F0F7F9002000F0D0F810BD00002C
:102A600010B5014606480B2905D8064A4900515AB7
:102A7000FEF700FD10BD4B214901FEF7FBFC10BD28
:102A800000340140B03D000870B505467D242401A6
:102A90002146284600F0C0FB2146284600F06CFC89
:102AA00070BD70B505467D24E4002146284600F03F
:102AB000D5FB2146284600F07FFC70BD70B5054669
:102AC000044C2846214600F0FBFB2146284600F036
:102AD0001FFD70BD7017000010B50446C8212046C8
:102AE00000F010FCC821204600F0CCFD10BD000015
:102AF00010B50220FFF764FC0020FFF7C5FF02A01D
:102B0000FEF71CFD10BD0000656E746572206578CF
:102B10006572636973652121210D0A0010B50649AC
:102B2000085CFDF744FDFEF71DF90621414303480B
:102B3000FEF79EFC10BD0000AC3D0008002C0140DB
:102B400010B50220FFF73CFC0020FFF7AAFF02A00F
:102B5000FEF7F4FC10BD0000656E746572206B6EAC
:102B60006561642121210D0A0000000010B50328D1
:102B700007D8B42148430349081A81B20248FEF736
:102B800075FC10BD76020000002C014010B502203B
:102B9000FFF716FC0020FFF791FF02A0FEF7CEFC26
:102BA00010BD0000656E7465722070617421212172
:102BB0000D0A000010B50220FFF702FC0020FFF70D
:102BC0008BFF02A0FEF7BAFC10BD0000656E7465B5
:102BD000722070726573732121210D0A00000000BC
:102BE00000B5002000F0B2F80020FFF7D1FE002071
:102BF000FFF764FD0120FFF7E3FB00BD01494863D7
:102C0000704700005400002010B5174C206B0028BE
:102C100008D101202063FFF7F9FA002803D0002033
:102C2000FFF7ECFF10BDFFF779FB002805D0606BC4
:102C3000401C6063012804D008E00020FFF7DEFF9D
:102C400010BD00F023F909A0FEF778FC606B014687
:102C5000FF39693902D0FFF7C3FF10BD00F0CCF88F
:102C6000012000F085F910BD54000020656E7465E8
:102C700072207374616E6462792121210D0A000053
:102C800010B502210A48FEF73FF8012808D100F0EC
:102C90005DF8FFF7BBFA002803D0002000F096FD96
:102CA00010BD002000F092FDFFF79AFF10BD00005C
:102CB0000008014010B502210C48FEF725F8002855
:102CC0000CD00B49C86A401CC217920F1218920808
:102CD0009200801AC862002802D003E0002010BDD4
:102CE0000420C862888DC0B210BD000000080140F9
:102CF0005400002010B502211248FEF705F8002804
:102D00001FD0114CE07800281BD10120E070E06A50
:102D1000C1B2A17162798A4213D00300FEF735FC7B
:102D2000050F04070A0D0F00FFF744FF07E0FFF748
:102D30002DFF04E0FFF704FF01E0FFF7D9FEA079C3
:102D4000607110BD00080140540000200149C862B4
:102D5000704700005400002010B50020FFF7F6FF78
:102D60000020FFF72DFB0320FFF712FE0220FFF7E4
:102D7000A5FC02A0FEF7E2FB10BD0000656E7465C5
:102D800072207761726D20706C6163652121210D65
:102D90000A0000000349088A002801D0401E08826A
:102DA000704700005400002070B5002000F05EF86D
:102DB0007D24E4002046FFF7B5F9012000F056F825
:102DC0000C4D2846FFF7AEF9002000F04FF82046E2
:102DD000FFF7A8F9012000F049F82846FFF7A2F90B
:102DE000002000F043F82046FFF79CF9012000F096
:102DF0003DF870BDB80B000010B5002000F036F8AB
:102E00007D200001FFF78EF9012000F02FF810BDA2
:102E100010B5002000F02AF87D2424012046FFF799
:102E200081F9012000F022F86010FFF77BF9002003
:102E300000F01CF82046FFF775F9012000F016F8A5
:102E400010BD000000B587B001210420FEF746F850
:102E50000120C002019001200290059001A90248C2
:102E6000FDF7AEFE07B000BD0008014010B501211E
:102E7000C902054A002803D01046FDF74CFF10BDDB
:102E80001046FDF74AFF10BD0008014010B50020B4
:102E9000FFF7ECFFFF20F530FFF744F90120FFF7C3
:102EA000E5FF10BD70B50020FFF7E0FFFF24F5340B
:102EB0002046FFF737F90120FFF7D8FF65002846C5
:102EC000FFF730F90020FFF7D1FF2046FFF72AF97E
:102ED0000120FFF7CBFF2846FFF724F90020FFF77A
:102EE000C5FF2046FFF71EF90120FFF7BFFF70BDA9
:102EF00010B50020FFF7BAFFFF24F5342046FFF796
:102F000011F90120FFF7B2FF6000FFF70BF9002075
:102F1000FFF7ACFF2046FFF705F90120FFF7A6FFFA
:102F200010BD0000F8B5002400F050FD0746074D25
:102F3000074E00E0641CA00029583846FDF753F9FD
:102F4000B042F7D2A41FA0B2F8BD0000443C000874
:102F50000000808001480078704700004400002095
:102F600010B500F015F8002000F086F810BD000044
:102F700010B5064A002804D002211046FDF7CBFE0A
:102F800010BD02211046FDF7C8FE10BD000801402B
:102F900000B587B001210420FDF7A0FF02200190B9
:102FA0000120029000210391049001A90248FDF73D
:102FB00007FE07B000BD00000008014010B5104832
:102FC000007800280DD001280CD0022809D0032851
:102FD00007D1FFF711FF0BA0FEF7B0FA0120FFF7B2
:102FE000C7FF10BD0020FFF7C3FF022000F064F808
:102FF000FFF702FFFFF744FE06A0FEF79FFA10BDA1
:1030000044000020706F776572206F666621212171
:103010000D0A0000706F776572206F6E2121210DFF
:103020000A00000010B50D4CA068002814D1012042
:10303000A060FFF7EBF800280ED0E068401CE060CD
:103040004B214901884207D105A0FEF777FAFFF727
:10305000D3FE0120FFF78CFF10BD000044000020CC
:103060007472656174206D6F64652074696D656F3D
:1030700075742121210D0A000149C86070470000C4
:103080004400002003498868002801D0401E886061
:10309000704700004400002003494868002801D020
:1030A000401E4860704700004400002000B500202A
:1030B00000F002F800BD00000149087070470000F0
:1030C0004400002010B50649064A0889904202D201
:1030D000401C088110BD0020088100F005F810BDDB
:1030E00020000020E7030000F0B585B000F06EFC82
:1030F000074614210120FEF7BBFE0390FFF712FFE5
:103100000546FEF7C9FE0446FEF7F4FF06463846BC
:10311000FDF794FA6A4623C2214607A0039AFEF7F8
:103120000DFA3046FDF78AFA02460B460CA0FEF770
:1031300005FA05B0F0BD00004144435F6368393DC6
:1031400025642C617665726167653D25642C726526
:1031500073743D25662C74656D703D25640D0A0001
:10316000766F6C75653D25660D0A000010B500F0A0
:1031700037FB00F077FB00F011F800F0ADFB00F03A
:10318000E9FB002000F036F8002000F0E3FA002010
:1031900000F03CF8002000F0D1FA10BD70B586B008
:1031A00001210520FDF79AFE0420009002240194DD
:1031B0000125049505940B4E69463046FDF700FD48
:1031C0004020009001940495059469463046FDF72F
:1031D000F7FC80200090059469463046FDF7F0FC2E
:1031E00006B070BD000801400148008A80B27047F7
:1031F00020000020014908617047000020000020E5
:103200000148008B80B2704720000020014988618E
:10321000704700002000002070B50C460C4D0D4E8C
:10322000002807D029463046FEF720F90020FFF796
:10323000E1FF70BDFFF7D8FFA04204D20649304637
:10324000FEF714F970BD29463046FEF70FF970BD40
:10325000C05D0000000400405046000070B5054607
:10326000FFF75CF8401E84B2FFF7CAFF0246114820
:103270001149002D05D0FEF7F9F80020FFF7C6FF31
:1032800070BD631E092B10D80C49962A02D2FEF796
:10329000EDF870BDFF23963A5F339A4202D2FEF7F3
:1032A000E5F870BDFEF7E2F870BD002CFCD1FEF72A
:1032B000DDF870BD00040040C05D00005046000015
:1032C00010B50446FFF72AF8401E82B20A480B499F
:1032D000002C05D0FEF7CAF8002000F02FFA10BD30
:1032E000531E092B03D80649FEF7C0F810BD002A6B
:1032F000FCD1FEF7BBF810BD00040040C05D00002B
:1033000050460000F8B504460D46FFF707F8401E8A
:1033100080B2164E164F002C07D039463046FEF7C5
:10332000A5F8002000F016FAF8BD411E092915D8AD
:1033300000F00AFAA8420CD200F006FA0D496428FF
:1033400003D23046FEF792F8F8BD3046FEF78EF80D
:10335000F8BD39463046FEF789F8F8BD0028FCD1A3
:1033600039463046FEF782F8F8BD00000004004000
:10337000C05D00005046000070B50C460C4D0028A2
:1033800007D000212846FEF773F80020FFF732FF30
:1033900070BDFFF729FFA04204D206492846FEF778
:1033A00067F870BD00212846FEF762F870BD000086
:1033B0000004004070170000FEB50646FEF7AEFFA1
:1033C000401E85B2681CC0B2FEF72EFF0090FFF7CA
:1033D00017FF04464648002E06D00021FEF748F8A5
:1033E0000020FFF713FFFEBD691E092979D84B267F
:1033F00040497601404F962C2AD2FEF739F82046F4
:10340000FDF7F0F8044600980D46301AFDF7D6F89F
:103410003A463A4BFCF7E0FF06460F460098FDF7A8
:10342000E1F832463B46FCF725FF0022344BFDF71E
:103430003BF822462B46FCF7CFFF0022314BFCF72E
:10344000C3FFFDF7DDF881B22F48FEF713F8FEBD8C
:103450002246963AFF235F3315469A422ED2FEF754
:1034600007F82846FDF7AAF80D4600990446701A99
:10347000FDF7A4F83A46214BFCF7AEFF0022234BA0
:1034800001910290FDF710F822462B46FCF7A4FFAD
:1034900006460F46019D029C0098FDF7A3F82246C0
:1034A0002B46FCF7E7FE32463B46FCF787FFFDF76D
:1034B000A7F881B21448FDF7DDFFFEBDFDF7D8FF88
:1034C0000098FF21301AF531FCF728FEFF3CF53C4F
:1034D00000996043401881B20B48FDF7CBFFFEBD59
:1034E000FFE7002DFBD10021FDF7C2FFF7E7000049
:1034F00000040040701700009A9999999999C93F62
:1035000000C0624000C0A2400034014000E07540AD
:10351000F8B50746FEF702FF401E85B2681CC0B230
:10352000FEF782FE009000F003F904464D4E002F96
:1035300007D000213046FDF79BFF002000F0FEF889
:10354000F8BD681E09287CD87D200001464D8442C4
:103550007CD281102046FCF7CBFD4B277F014B2905
:103560002CD229463046FDF783FF2046FDF73AF876
:10357000044600980D46381AFDF720F83B4A3C4BAC
:10358000FCF72AFF06460F460098FDF72BF8324657
:103590003B46FCF76FFE0022364BFCF785FF2246C8
:1035A0002B46FCF719FF0022334BFCF70DFFFDF70C
:1035B00027F881B23148FDF75DFFF8BD4C39AE29DF
:1035C0002FD229463046FDF753FF20464B38FCF7F3
:1035D000F5FF0D4600990446781AFCF7EFFF234AE1
:1035E000234BFCF7F9FE0F4606460022244BFCF75E
:1035F0005BFF22462B46FCF7EFFE04460D46009883
:10360000FCF7F0FF32463B46FCF734FE22462B46E1
:10361000FCF7D4FEFCF7F4FF81B21848FDF72AFF4F
:10362000F8BD29463046FDF723FF0098FA21381AE5
:10363000FCF774FDFA3C00996043401881B20F48D2
:1036400001E008E002E0FDF715FFF8BD294630462D
:10365000FDF70EFFF8BD002DFCD100213046FDF72F
:1036600007FFF8BD00040040701700009A9999996F
:103670009999C93F00C0524000C0A24000340140A7
:1036800000E06540F8B506460F46FEF747FE401ECF
:1036900084B2601CC0B2FEF7C7FD0546002E07D0FD
:1036A00000212048FDF7E4FE002000F053F8F8BDAB
:1036B000601E09282ED800F047F8B84225D200F045
:1036C00043F804464B2618497601184F642C0DD256
:1036D0001448FDF7CDFE701B6421FCF71FFD60430D
:1036E000301A81B23846FDF7C5FEF8BD0D48FDF72A
:1036F000BFFE701B6421FCF711FD643C6043401960
:1037000081B23846FDF7B6FEF8BD00210548FDF749
:10371000AFFEF8BD002CFCD100210248FDF7A8FE49
:10372000F8BD0000000400407017000000340140A4
:103730000148808B80B27047200000200149C86199
:1037400070470000200000200148808A80B2704746
:10375000200000200149486170470000200000203F
:1037600010B5002804D1034841880348FDF782FEC4
:1037700010BD000090000020002C01400B494A7849
:1037800008464088012A05D0401C48804888002807
:1037900003D004E0401E4880F8E700224A70044A43
:1037A000904201D101204870704700009000002035
:1037B0007602000010B5002803D102490248FDF747
:1037C00059FE10BD76020000002C014010B5002803
:1037D00003D100210148FDF74DFE10BD002C014032
:1037E00030B587B001210520FDF778FB012080026C
:1037F000019002240294012005900694074D01A92E
:103800002846FDF7DDF91821019102940320069066
:1038100001A92846FDF7D4F907B030BD00080140E2
:1038200010B5002807D1064801780648012903D0C1
:103830000549FDF71FFE10BD0021FDF71BFE10BD61
:1038400090000020002C0140760200000449087816
:10385000002802D00020087070470120FBE700001C
:103860009000002030B589B001210803FDF736FB38
:10387000002468468482C482154901834483047706
:10388000144D05A92846FDF787FD70216846818003
:103890000121C180042101818481C48189010182C7
:1038A000448201A92846FDF7BFFC01A92846FDF77F
:1038B000F1FC01A92846FDF72FFD01212846FDF75F
:1038C00099FC01212846FDF7A1FC09B030BD00009C
:1038D00057020000002C014070B588B00121022081
:1038E000FDF7EEFA00206946088260244C82174AF0
:1038F0008A82C882164E04A93046FDF74DFD6946FE
:103900000C8001254D8002240C813046FDF78CFC93
:103910007020694608804D800C813046FDF7BAFC66
:1039200008213046FDF74FFC08213046FDF752FCD8
:1039300001213046FDF73CFC01213046FDF75AFCE1
:1039400001213046FDF762FC08B070BDBF5D00008C
:103950000004004010B588B001214803FDF7BEFA0D
:1039600000206A461082508216499182D0821076D9
:10397000154C04A92046FDF70FFD60206A46108013
:103980000120508004209080022010810820508166
:1039900041019181D18169462046FDF7BDFC082196
:1039A0002046FDF721FC01212046FDF701FC012105
:1039B0002046FDF71FFC01212046FDF727FC08B03B
:1039C00010BD00005F0900000034014070B51421F3
:1039D0000120FEF74DFA04460648001BFCF7DCFD0B
:1039E000054620460A214843FCF7E1FD2946FCF73D
:1039F00002FC70BDFF0F00000349086B002801D0D6
:103A0000401E0863704700005400002010B50221DA
:103A10000348FDF779F9002801D0FFF7F5F810BD4C
:103A20000008014010B502210E48FDF76DF900288D
:103A300017D00D4C2079002813D101202071FEF7FA
:103A4000E5FBA08100280CD0E089002809D1FFF710
:103A50001DFA06A0FDF772FD0120FFF777F9A08996
:103A6000E08110BD00080140540000203232320DC8
:103A70000A00000003490879002801D0401E08719F
:103A8000704700005400002000B50020FEF764FBE2
:103A900000BD000010B50648C188002904D00021EF
:103AA000C180FEF7E1FA10BD0121C18010BD000008
:103AB0002000002010B50E494888092802D2401C79
:103AC000488010BD00204880FEF708FEFFF7E4FAAA
:103AD000FEF764FFFEF7F8FDFEF778FC00F030F823
:103AE000FFF7C8FFFFF756F9FEF7A8FF10BD00006B
:103AF0002000002010B506490878022802D2401C98
:103B0000087010BD00200870FFF738FE10BD0000DF
:103B10002000002010B50949FF228888F432904225
:103B200002D2401C888010BD00208880FFF78EFEE6
:103B3000FFF7A8FAFFF760FF10BD0000200000208B
:103B40000349C878002801D0401EC87070470000A3
:103B50005400002010B500F003F800F01FF810BD6D
:103B600030B587B001210420FDF7B8F901204002EB
:103B700001900220029004240694074D01A92846D2
:103B8000FDF71EF861030191069401A92846FDF78F
:103B900017F807B030BD0000000801401FB5012133
:103BA0008803FDF79BF9E120400200900020694660
:103BB0008880C880088188810C204881044C204678
:103BC000FDF772FC01212046FDF756FC1FBD0000E9
:103BD000003801400148407870470000160000207E
:103BE00001494870704700001600002001488078A5
:103BF00070470000160000200149887070470000DF
:103C0000160000200000000001020304010203046A
:103C10000607080901020406080A0C1020202020CB
:103C200020202020010002000400060008000A00F5
:103C30000C00100020004000800000010001000185
:103C400000010001C73A09422B360342B9FCFA4190
:103C5000B21DF041AEC7E541E5F2DB419398D24198
:103C6000F9B1C941BB38C1415227B941CF77B14100
:103C70004625AA41CE2AA341E4839C41D42B9641F8
:103C8000ED1E904117598A41A1D68441F6287F4103
:103C9000E71D754159866B41295C6241D49A5941AF
:103CA000363C5141CD3B4941AF944141C4423A4138
:103CB0005B4233418A8E2C4174242641000020410E
:103CC0004F1E1A41B37B1441B5150F4179E90941E3
:103CD0001FF40441CA320041AE47F740FD87EE4071
:103CE0000B24E640F016DE40C05BD640D8F0CE4054
:103CF0007DD0C74009F9C0406666BA404D15B44052
:103D00001904AE40B22EA840A392A240492E9D4075
:103D10005DFE97403B0193406E348E408195894013
:103D2000D12285408CDB8040D578794094877140E2
:103D3000B1E16940E4836240E86A5B4075935440B6
:103D4000E7FB4D40569F4740637F414081953B4094
:103D5000B1E13540AA603040CB102B4013F2254032
:103D600097FF204058391C40B29D17405F291340EF
:103D70005DDC0E4011000000192500082100000044
:103D8000E1240008120000003524000813000000A0
:103D90005124000814000000BD2400081500000094
:103DA00099240008250000006D24000800282C2F0D
:103DB00060096009D007080740067805B004E803E9
:103DC000200358029001FA00E83D0008000000209E
:103DD000A0000000A4150008883E0008A0000020F4
:103DE00000040000B4150008006CDC0200000000B4
:103DF00000000000000000000000000000000000C3
:103E000000000000000000000000000000000000B2
:103E100000000000000000000000000000000000A2
:103E20000000000000000000000000000000000092
:103E30000000000000000000000000000000000082
:103E4000000001000100010000000000000000006F
:103E50000000000000000000000000000000000062
:103E60000000000000000000000000000000000052
:103E700000000000CDCC4C3E0101760200000000A5
:083E800000000000000000003A
:04000005080000C12E
:00000001FF
